{
  "_format": "hh-sol-artifact-1",
  "contractName": "MyDigiNft",
  "sourceName": "contracts/MyNft.sol",
  "abi": [
    {
      "inputs": [],
      "stateMutability": "nonpayable",
      "type": "constructor"
    },
    {
      "anonymous": false,
      "inputs": [
        {
          "indexed": true,
          "internalType": "address",
          "name": "owner",
          "type": "address"
        },
        {
          "indexed": true,
          "internalType": "address",
          "name": "approved",
          "type": "address"
        },
        {
          "indexed": true,
          "internalType": "uint256",
          "name": "tokenId",
          "type": "uint256"
        }
      ],
      "name": "Approval",
      "type": "event"
    },
    {
      "anonymous": false,
      "inputs": [
        {
          "indexed": true,
          "internalType": "address",
          "name": "owner",
          "type": "address"
        },
        {
          "indexed": true,
          "internalType": "address",
          "name": "operator",
          "type": "address"
        },
        {
          "indexed": false,
          "internalType": "bool",
          "name": "approved",
          "type": "bool"
        }
      ],
      "name": "ApprovalForAll",
      "type": "event"
    },
    {
      "anonymous": false,
      "inputs": [
        {
          "indexed": true,
          "internalType": "address",
          "name": "from",
          "type": "address"
        },
        {
          "indexed": true,
          "internalType": "address",
          "name": "to",
          "type": "address"
        },
        {
          "indexed": true,
          "internalType": "uint256",
          "name": "tokenId",
          "type": "uint256"
        }
      ],
      "name": "Transfer",
      "type": "event"
    },
    {
      "inputs": [
        {
          "internalType": "address",
          "name": "to",
          "type": "address"
        },
        {
          "internalType": "uint256",
          "name": "tokenId",
          "type": "uint256"
        }
      ],
      "name": "approve",
      "outputs": [],
      "stateMutability": "nonpayable",
      "type": "function"
    },
    {
      "inputs": [
        {
          "internalType": "address",
          "name": "owner",
          "type": "address"
        }
      ],
      "name": "balanceOf",
      "outputs": [
        {
          "internalType": "uint256",
          "name": "",
          "type": "uint256"
        }
      ],
      "stateMutability": "view",
      "type": "function"
    },
    {
      "inputs": [
        {
          "internalType": "uint256",
          "name": "tokenId",
          "type": "uint256"
        }
      ],
      "name": "getApproved",
      "outputs": [
        {
          "internalType": "address",
          "name": "",
          "type": "address"
        }
      ],
      "stateMutability": "view",
      "type": "function"
    },
    {
      "inputs": [
        {
          "internalType": "address",
          "name": "owner",
          "type": "address"
        },
        {
          "internalType": "address",
          "name": "operator",
          "type": "address"
        }
      ],
      "name": "isApprovedForAll",
      "outputs": [
        {
          "internalType": "bool",
          "name": "",
          "type": "bool"
        }
      ],
      "stateMutability": "view",
      "type": "function"
    },
    {
      "inputs": [],
      "name": "name",
      "outputs": [
        {
          "internalType": "string",
          "name": "",
          "type": "string"
        }
      ],
      "stateMutability": "view",
      "type": "function"
    },
    {
      "inputs": [
        {
          "internalType": "uint256",
          "name": "tokenId",
          "type": "uint256"
        }
      ],
      "name": "ownerOf",
      "outputs": [
        {
          "internalType": "address",
          "name": "",
          "type": "address"
        }
      ],
      "stateMutability": "view",
      "type": "function"
    },
    {
      "inputs": [
        {
          "internalType": "string",
          "name": "uri",
          "type": "string"
        }
      ],
      "name": "safeMint",
      "outputs": [],
      "stateMutability": "nonpayable",
      "type": "function"
    },
    {
      "inputs": [
        {
          "internalType": "address",
          "name": "from",
          "type": "address"
        },
        {
          "internalType": "address",
          "name": "to",
          "type": "address"
        },
        {
          "internalType": "uint256",
          "name": "tokenId",
          "type": "uint256"
        }
      ],
      "name": "safeTransferFrom",
      "outputs": [],
      "stateMutability": "nonpayable",
      "type": "function"
    },
    {
      "inputs": [
        {
          "internalType": "address",
          "name": "from",
          "type": "address"
        },
        {
          "internalType": "address",
          "name": "to",
          "type": "address"
        },
        {
          "internalType": "uint256",
          "name": "tokenId",
          "type": "uint256"
        },
        {
          "internalType": "bytes",
          "name": "data",
          "type": "bytes"
        }
      ],
      "name": "safeTransferFrom",
      "outputs": [],
      "stateMutability": "nonpayable",
      "type": "function"
    },
    {
      "inputs": [
        {
          "internalType": "address",
          "name": "operator",
          "type": "address"
        },
        {
          "internalType": "bool",
          "name": "approved",
          "type": "bool"
        }
      ],
      "name": "setApprovalForAll",
      "outputs": [],
      "stateMutability": "nonpayable",
      "type": "function"
    },
    {
      "inputs": [
        {
          "internalType": "bytes4",
          "name": "interfaceId",
          "type": "bytes4"
        }
      ],
      "name": "supportsInterface",
      "outputs": [
        {
          "internalType": "bool",
          "name": "",
          "type": "bool"
        }
      ],
      "stateMutability": "view",
      "type": "function"
    },
    {
      "inputs": [],
      "name": "symbol",
      "outputs": [
        {
          "internalType": "string",
          "name": "",
          "type": "string"
        }
      ],
      "stateMutability": "view",
      "type": "function"
    },
    {
      "inputs": [
        {
          "internalType": "uint256",
          "name": "index",
          "type": "uint256"
        }
      ],
      "name": "tokenByIndex",
      "outputs": [
        {
          "internalType": "uint256",
          "name": "",
          "type": "uint256"
        }
      ],
      "stateMutability": "view",
      "type": "function"
    },
    {
      "inputs": [
        {
          "internalType": "address",
          "name": "owner",
          "type": "address"
        },
        {
          "internalType": "uint256",
          "name": "index",
          "type": "uint256"
        }
      ],
      "name": "tokenOfOwnerByIndex",
      "outputs": [
        {
          "internalType": "uint256",
          "name": "",
          "type": "uint256"
        }
      ],
      "stateMutability": "view",
      "type": "function"
    },
    {
      "inputs": [
        {
          "internalType": "uint256",
          "name": "tokenId",
          "type": "uint256"
        }
      ],
      "name": "tokenURI",
      "outputs": [
        {
          "internalType": "string",
          "name": "",
          "type": "string"
        }
      ],
      "stateMutability": "view",
      "type": "function"
    },
    {
      "inputs": [],
      "name": "totalSupply",
      "outputs": [
        {
          "internalType": "uint256",
          "name": "",
          "type": "uint256"
        }
      ],
      "stateMutability": "view",
      "type": "function"
    },
    {
      "inputs": [
        {
          "internalType": "address",
          "name": "from",
          "type": "address"
        },
        {
          "internalType": "address",
          "name": "to",
          "type": "address"
        },
        {
          "internalType": "uint256",
          "name": "tokenId",
          "type": "uint256"
        }
      ],
      "name": "transferFrom",
      "outputs": [],
      "stateMutability": "nonpayable",
      "type": "function"
    }
  ],
  "bytecode": "0x60806040523480156200001157600080fd5b506040518060400160405280601181526020017f44696769204769726c7320474f474f474f0000000000000000000000000000008152506040518060400160405280600a81526020017f44696769204769726c730000000000000000000000000000000000000000000081525081600090816200008f919062000324565b508060019081620000a1919062000324565b5050506200040b565b600081519050919050565b7f4e487b7100000000000000000000000000000000000000000000000000000000600052604160045260246000fd5b7f4e487b7100000000000000000000000000000000000000000000000000000000600052602260045260246000fd5b600060028204905060018216806200012c57607f821691505b602082108103620001425762000141620000e4565b5b50919050565b60008190508160005260206000209050919050565b60006020601f8301049050919050565b600082821b905092915050565b600060088302620001ac7fffffffffffffffffffffffffffffffffffffffffffffffffffffffffffffffff826200016d565b620001b886836200016d565b95508019841693508086168417925050509392505050565b6000819050919050565b6000819050919050565b600062000205620001ff620001f984620001d0565b620001da565b620001d0565b9050919050565b6000819050919050565b6200022183620001e4565b6200023962000230826200020c565b8484546200017a565b825550505050565b600090565b6200025062000241565b6200025d81848462000216565b505050565b5b8181101562000285576200027960008262000246565b60018101905062000263565b5050565b601f821115620002d4576200029e8162000148565b620002a9846200015d565b81016020851015620002b9578190505b620002d1620002c8856200015d565b83018262000262565b50505b505050565b600082821c905092915050565b6000620002f960001984600802620002d9565b1980831691505092915050565b6000620003148383620002e6565b9150826002028217905092915050565b6200032f82620000aa565b67ffffffffffffffff8111156200034b576200034a620000b5565b5b62000357825462000113565b6200036482828562000289565b600060209050601f8311600181146200039c576000841562000387578287015190505b62000393858262000306565b86555062000403565b601f198416620003ac8662000148565b60005b82811015620003d657848901518255600182019150602085019450602081019050620003af565b86831015620003f65784890151620003f2601f891682620002e6565b8355505b6001600288020188555050505b505050505050565b613533806200041b6000396000f3fe608060405234801561001057600080fd5b506004361061010b5760003560e01c80634f6ccce7116100a257806395d89b411161007157806395d89b41146102dc578063a22cb465146102fa578063b88d4fde14610316578063c87b56dd14610332578063e985e9c5146103625761010b565b80634f6ccce7146102305780636352211e14610260578063695850fb1461029057806370a08231146102ac5761010b565b806318160ddd116100de57806318160ddd146101aa57806323b872dd146101c85780632f745c59146101e457806342842e0e146102145761010b565b806301ffc9a71461011057806306fdde0314610140578063081812fc1461015e578063095ea7b31461018e575b600080fd5b61012a6004803603810190610125919061218a565b610392565b60405161013791906121d2565b60405180910390f35b6101486103a4565b604051610155919061227d565b60405180910390f35b610178600480360381019061017391906122d5565b610436565b6040516101859190612343565b60405180910390f35b6101a860048036038101906101a3919061238a565b61047c565b005b6101b2610593565b6040516101bf91906123d9565b60405180910390f35b6101e260048036038101906101dd91906123f4565b6105a0565b005b6101fe60048036038101906101f9919061238a565b610600565b60405161020b91906123d9565b60405180910390f35b61022e600480360381019061022991906123f4565b6106a5565b005b61024a600480360381019061024591906122d5565b6106c5565b60405161025791906123d9565b60405180910390f35b61027a600480360381019061027591906122d5565b610736565b6040516102879190612343565b60405180910390f35b6102aa60048036038101906102a5919061257c565b6107bc565b005b6102c660048036038101906102c191906125c5565b6107ec565b6040516102d391906123d9565b60405180910390f35b6102e46108a3565b6040516102f1919061227d565b60405180910390f35b610314600480360381019061030f919061261e565b610935565b005b610330600480360381019061032b91906126ff565b61094b565b005b61034c600480360381019061034791906122d5565b6109ad565b604051610359919061227d565b60405180910390f35b61037c60048036038101906103779190612782565b6109bf565b60405161038991906121d2565b60405180910390f35b600061039d82610a53565b9050919050565b6060600080546103b3906127f1565b80601f01602080910402602001604051908101604052809291908181526020018280546103df906127f1565b801561042c5780601f106104015761010080835404028352916020019161042c565b820191906000526020600020905b81548152906001019060200180831161040f57829003601f168201915b5050505050905090565b600061044182610acd565b6004600083815260200190815260200160002060009054906101000a900473ffffffffffffffffffffffffffffffffffffffff169050919050565b600061048782610736565b90508073ffffffffffffffffffffffffffffffffffffffff168373ffffffffffffffffffffffffffffffffffffffff16036104f7576040517f08c379a00000000000000000000000000000000000000000000000000000000081526004016104ee90612894565b60405180910390fd5b8073ffffffffffffffffffffffffffffffffffffffff16610516610b18565b73ffffffffffffffffffffffffffffffffffffffff16148061054557506105448161053f610b18565b6109bf565b5b610584576040517f08c379a000000000000000000000000000000000000000000000000000000000815260040161057b90612926565b60405180910390fd5b61058e8383610b20565b505050565b6000600880549050905090565b6105b16105ab610b18565b82610bd9565b6105f0576040517f08c379a00000000000000000000000000000000000000000000000000000000081526004016105e7906129b8565b60405180910390fd5b6105fb838383610c6e565b505050565b600061060b836107ec565b821061064c576040517f08c379a000000000000000000000000000000000000000000000000000000000815260040161064390612a4a565b60405180910390fd5b600660008473ffffffffffffffffffffffffffffffffffffffff1673ffffffffffffffffffffffffffffffffffffffff168152602001908152602001600020600083815260200190815260200160002054905092915050565b6106c08383836040518060200160405280600081525061094b565b505050565b60006106cf610593565b8210610710576040517f08c379a000000000000000000000000000000000000000000000000000000000815260040161070790612adc565b60405180910390fd5b6008828154811061072457610723612afc565b5b90600052602060002001549050919050565b60008061074283610f67565b9050600073ffffffffffffffffffffffffffffffffffffffff168173ffffffffffffffffffffffffffffffffffffffff16036107b3576040517f08c379a00000000000000000000000000000000000000000000000000000000081526004016107aa90612b77565b60405180910390fd5b80915050919050565b60006107c8600b610fa4565b90506107d4600b610fb2565b6107de3382610fc8565b6107e88183610fe6565b5050565b60008073ffffffffffffffffffffffffffffffffffffffff168273ffffffffffffffffffffffffffffffffffffffff160361085c576040517f08c379a000000000000000000000000000000000000000000000000000000000815260040161085390612c09565b60405180910390fd5b600360008373ffffffffffffffffffffffffffffffffffffffff1673ffffffffffffffffffffffffffffffffffffffff168152602001908152602001600020549050919050565b6060600180546108b2906127f1565b80601f01602080910402602001604051908101604052809291908181526020018280546108de906127f1565b801561092b5780601f106109005761010080835404028352916020019161092b565b820191906000526020600020905b81548152906001019060200180831161090e57829003601f168201915b5050505050905090565b610947610940610b18565b8383611053565b5050565b61095c610956610b18565b83610bd9565b61099b576040517f08c379a0000000000000000000000000000000000000000000000000000000008152600401610992906129b8565b60405180910390fd5b6109a7848484846111bf565b50505050565b60606109b88261121b565b9050919050565b6000600560008473ffffffffffffffffffffffffffffffffffffffff1673ffffffffffffffffffffffffffffffffffffffff16815260200190815260200160002060008373ffffffffffffffffffffffffffffffffffffffff1673ffffffffffffffffffffffffffffffffffffffff16815260200190815260200160002060009054906101000a900460ff16905092915050565b60007f780e9d63000000000000000000000000000000000000000000000000000000007bffffffffffffffffffffffffffffffffffffffffffffffffffffffff1916827bffffffffffffffffffffffffffffffffffffffffffffffffffffffff19161480610ac65750610ac58261132d565b5b9050919050565b610ad68161140f565b610b15576040517f08c379a0000000000000000000000000000000000000000000000000000000008152600401610b0c90612b77565b60405180910390fd5b50565b600033905090565b816004600083815260200190815260200160002060006101000a81548173ffffffffffffffffffffffffffffffffffffffff021916908373ffffffffffffffffffffffffffffffffffffffff160217905550808273ffffffffffffffffffffffffffffffffffffffff16610b9383610736565b73ffffffffffffffffffffffffffffffffffffffff167f8c5be1e5ebec7d5bd14f71427d1e84f3dd0314c0f7b2291e5b200ac8c7c3b92560405160405180910390a45050565b600080610be583610736565b90508073ffffffffffffffffffffffffffffffffffffffff168473ffffffffffffffffffffffffffffffffffffffff161480610c275750610c2681856109bf565b5b80610c6557508373ffffffffffffffffffffffffffffffffffffffff16610c4d84610436565b73ffffffffffffffffffffffffffffffffffffffff16145b91505092915050565b8273ffffffffffffffffffffffffffffffffffffffff16610c8e82610736565b73ffffffffffffffffffffffffffffffffffffffff1614610ce4576040517f08c379a0000000000000000000000000000000000000000000000000000000008152600401610cdb90612c9b565b60405180910390fd5b600073ffffffffffffffffffffffffffffffffffffffff168273ffffffffffffffffffffffffffffffffffffffff1603610d53576040517f08c379a0000000000000000000000000000000000000000000000000000000008152600401610d4a90612d2d565b60405180910390fd5b610d608383836001611450565b8273ffffffffffffffffffffffffffffffffffffffff16610d8082610736565b73ffffffffffffffffffffffffffffffffffffffff1614610dd6576040517f08c379a0000000000000000000000000000000000000000000000000000000008152600401610dcd90612c9b565b60405180910390fd5b6004600082815260200190815260200160002060006101000a81549073ffffffffffffffffffffffffffffffffffffffff02191690556001600360008573ffffffffffffffffffffffffffffffffffffffff1673ffffffffffffffffffffffffffffffffffffffff168152602001908152602001600020600082825403925050819055506001600360008473ffffffffffffffffffffffffffffffffffffffff1673ffffffffffffffffffffffffffffffffffffffff16815260200190815260200160002060008282540192505081905550816002600083815260200190815260200160002060006101000a81548173ffffffffffffffffffffffffffffffffffffffff021916908373ffffffffffffffffffffffffffffffffffffffff160217905550808273ffffffffffffffffffffffffffffffffffffffff168473ffffffffffffffffffffffffffffffffffffffff167fddf252ad1be2c89b69c2b068fc378daa952ba7f163c4a11628f55a4df523b3ef60405160405180910390a4610f628383836001611462565b505050565b60006002600083815260200190815260200160002060009054906101000a900473ffffffffffffffffffffffffffffffffffffffff169050919050565b600081600001549050919050565b6001816000016000828254019250508190555050565b610fe2828260405180602001604052806000815250611468565b5050565b610fef8261140f565b61102e576040517f08c379a000000000000000000000000000000000000000000000000000000000815260040161102590612dbf565b60405180910390fd5b80600a6000848152602001908152602001600020908161104e9190612f8b565b505050565b8173ffffffffffffffffffffffffffffffffffffffff168373ffffffffffffffffffffffffffffffffffffffff16036110c1576040517f08c379a00000000000000000000000000000000000000000000000000000000081526004016110b8906130a9565b60405180910390fd5b80600560008573ffffffffffffffffffffffffffffffffffffffff1673ffffffffffffffffffffffffffffffffffffffff16815260200190815260200160002060008473ffffffffffffffffffffffffffffffffffffffff1673ffffffffffffffffffffffffffffffffffffffff16815260200190815260200160002060006101000a81548160ff0219169083151502179055508173ffffffffffffffffffffffffffffffffffffffff168373ffffffffffffffffffffffffffffffffffffffff167f17307eab39ab6107e8899845ad3d59bd9653f200f220920489ca2b5937696c31836040516111b291906121d2565b60405180910390a3505050565b6111ca848484610c6e565b6111d6848484846114c3565b611215576040517f08c379a000000000000000000000000000000000000000000000000000000000815260040161120c9061313b565b60405180910390fd5b50505050565b606061122682610acd565b6000600a60008481526020019081526020016000208054611246906127f1565b80601f0160208091040260200160405190810160405280929190818152602001828054611272906127f1565b80156112bf5780601f10611294576101008083540402835291602001916112bf565b820191906000526020600020905b8154815290600101906020018083116112a257829003601f168201915b5050505050905060006112d061164a565b905060008151036112e5578192505050611328565b60008251111561131a578082604051602001611302929190613197565b60405160208183030381529060405292505050611328565b61132384611661565b925050505b919050565b60007f80ac58cd000000000000000000000000000000000000000000000000000000007bffffffffffffffffffffffffffffffffffffffffffffffffffffffff1916827bffffffffffffffffffffffffffffffffffffffffffffffffffffffff191614806113f857507f5b5e139f000000000000000000000000000000000000000000000000000000007bffffffffffffffffffffffffffffffffffffffffffffffffffffffff1916827bffffffffffffffffffffffffffffffffffffffffffffffffffffffff1916145b806114085750611407826116c9565b5b9050919050565b60008073ffffffffffffffffffffffffffffffffffffffff1661143183610f67565b73ffffffffffffffffffffffffffffffffffffffff1614159050919050565b61145c84848484611733565b50505050565b50505050565b6114728383611891565b61147f60008484846114c3565b6114be576040517f08c379a00000000000000000000000000000000000000000000000000000000081526004016114b59061313b565b60405180910390fd5b505050565b60006114e48473ffffffffffffffffffffffffffffffffffffffff16611aae565b1561163d578373ffffffffffffffffffffffffffffffffffffffff1663150b7a0261150d610b18565b8786866040518563ffffffff1660e01b815260040161152f9493929190613210565b6020604051808303816000875af192505050801561156b57506040513d601f19601f820116820180604052508101906115689190613271565b60015b6115ed573d806000811461159b576040519150601f19603f3d011682016040523d82523d6000602084013e6115a0565b606091505b5060008151036115e5576040517f08c379a00000000000000000000000000000000000000000000000000000000081526004016115dc9061313b565b60405180910390fd5b805181602001fd5b63150b7a0260e01b7bffffffffffffffffffffffffffffffffffffffffffffffffffffffff1916817bffffffffffffffffffffffffffffffffffffffffffffffffffffffff191614915050611642565b600190505b949350505050565b606060405180602001604052806000815250905090565b606061166c82610acd565b600061167661164a565b9050600081511161169657604051806020016040528060008152506116c1565b806116a084611ad1565b6040516020016116b1929190613197565b6040516020818303038152906040525b915050919050565b60007f01ffc9a7000000000000000000000000000000000000000000000000000000007bffffffffffffffffffffffffffffffffffffffffffffffffffffffff1916827bffffffffffffffffffffffffffffffffffffffffffffffffffffffff1916149050919050565b61173f84848484611b9f565b6001811115611783576040517f08c379a000000000000000000000000000000000000000000000000000000000815260040161177a90613310565b60405180910390fd5b6000829050600073ffffffffffffffffffffffffffffffffffffffff168573ffffffffffffffffffffffffffffffffffffffff16036117ca576117c581611cc5565b611809565b8373ffffffffffffffffffffffffffffffffffffffff168573ffffffffffffffffffffffffffffffffffffffff1614611808576118078582611d0e565b5b5b600073ffffffffffffffffffffffffffffffffffffffff168473ffffffffffffffffffffffffffffffffffffffff160361184b5761184681611e7b565b61188a565b8473ffffffffffffffffffffffffffffffffffffffff168473ffffffffffffffffffffffffffffffffffffffff1614611889576118888482611f4c565b5b5b5050505050565b600073ffffffffffffffffffffffffffffffffffffffff168273ffffffffffffffffffffffffffffffffffffffff1603611900576040517f08c379a00000000000000000000000000000000000000000000000000000000081526004016118f79061337c565b60405180910390fd5b6119098161140f565b15611949576040517f08c379a0000000000000000000000000000000000000000000000000000000008152600401611940906133e8565b60405180910390fd5b611957600083836001611450565b6119608161140f565b156119a0576040517f08c379a0000000000000000000000000000000000000000000000000000000008152600401611997906133e8565b60405180910390fd5b6001600360008473ffffffffffffffffffffffffffffffffffffffff1673ffffffffffffffffffffffffffffffffffffffff16815260200190815260200160002060008282540192505081905550816002600083815260200190815260200160002060006101000a81548173ffffffffffffffffffffffffffffffffffffffff021916908373ffffffffffffffffffffffffffffffffffffffff160217905550808273ffffffffffffffffffffffffffffffffffffffff16600073ffffffffffffffffffffffffffffffffffffffff167fddf252ad1be2c89b69c2b068fc378daa952ba7f163c4a11628f55a4df523b3ef60405160405180910390a4611aaa600083836001611462565b5050565b6000808273ffffffffffffffffffffffffffffffffffffffff163b119050919050565b606060006001611ae084611fcb565b01905060008167ffffffffffffffff811115611aff57611afe612451565b5b6040519080825280601f01601f191660200182016040528015611b315781602001600182028036833780820191505090505b509050600082602001820190505b600115611b94578080600190039150507f3031323334353637383961626364656600000000000000000000000000000000600a86061a8153600a8581611b8857611b87613408565b5b04945060008503611b3f575b819350505050919050565b6001811115611cbf57600073ffffffffffffffffffffffffffffffffffffffff168473ffffffffffffffffffffffffffffffffffffffff1614611c335780600360008673ffffffffffffffffffffffffffffffffffffffff1673ffffffffffffffffffffffffffffffffffffffff1681526020019081526020016000206000828254611c2b9190613466565b925050819055505b600073ffffffffffffffffffffffffffffffffffffffff168373ffffffffffffffffffffffffffffffffffffffff1614611cbe5780600360008573ffffffffffffffffffffffffffffffffffffffff1673ffffffffffffffffffffffffffffffffffffffff1681526020019081526020016000206000828254611cb6919061349a565b925050819055505b5b50505050565b6008805490506009600083815260200190815260200160002081905550600881908060018154018082558091505060019003906000526020600020016000909190919091505550565b60006001611d1b846107ec565b611d259190613466565b9050600060076000848152602001908152602001600020549050818114611e0a576000600660008673ffffffffffffffffffffffffffffffffffffffff1673ffffffffffffffffffffffffffffffffffffffff168152602001908152602001600020600084815260200190815260200160002054905080600660008773ffffffffffffffffffffffffffffffffffffffff1673ffffffffffffffffffffffffffffffffffffffff168152602001908152602001600020600084815260200190815260200160002081905550816007600083815260200190815260200160002081905550505b6007600084815260200190815260200160002060009055600660008573ffffffffffffffffffffffffffffffffffffffff1673ffffffffffffffffffffffffffffffffffffffff16815260200190815260200160002060008381526020019081526020016000206000905550505050565b60006001600880549050611e8f9190613466565b9050600060096000848152602001908152602001600020549050600060088381548110611ebf57611ebe612afc565b5b906000526020600020015490508060088381548110611ee157611ee0612afc565b5b906000526020600020018190555081600960008381526020019081526020016000208190555060096000858152602001908152602001600020600090556008805480611f3057611f2f6134ce565b5b6001900381819060005260206000200160009055905550505050565b6000611f57836107ec565b905081600660008573ffffffffffffffffffffffffffffffffffffffff1673ffffffffffffffffffffffffffffffffffffffff168152602001908152602001600020600083815260200190815260200160002081905550806007600084815260200190815260200160002081905550505050565b600080600090507a184f03e93ff9f4daa797ed6e38ed64bf6a1f0100000000000000008310612029577a184f03e93ff9f4daa797ed6e38ed64bf6a1f010000000000000000838161201f5761201e613408565b5b0492506040810190505b6d04ee2d6d415b85acef81000000008310612066576d04ee2d6d415b85acef8100000000838161205c5761205b613408565b5b0492506020810190505b662386f26fc10000831061209557662386f26fc10000838161208b5761208a613408565b5b0492506010810190505b6305f5e10083106120be576305f5e10083816120b4576120b3613408565b5b0492506008810190505b61271083106120e35761271083816120d9576120d8613408565b5b0492506004810190505b6064831061210657606483816120fc576120fb613408565b5b0492506002810190505b600a8310612115576001810190505b80915050919050565b6000604051905090565b600080fd5b600080fd5b60007fffffffff0000000000000000000000000000000000000000000000000000000082169050919050565b61216781612132565b811461217257600080fd5b50565b6000813590506121848161215e565b92915050565b6000602082840312156121a05761219f612128565b5b60006121ae84828501612175565b91505092915050565b60008115159050919050565b6121cc816121b7565b82525050565b60006020820190506121e760008301846121c3565b92915050565b600081519050919050565b600082825260208201905092915050565b60005b8381101561222757808201518184015260208101905061220c565b60008484015250505050565b6000601f19601f8301169050919050565b600061224f826121ed565b61225981856121f8565b9350612269818560208601612209565b61227281612233565b840191505092915050565b600060208201905081810360008301526122978184612244565b905092915050565b6000819050919050565b6122b28161229f565b81146122bd57600080fd5b50565b6000813590506122cf816122a9565b92915050565b6000602082840312156122eb576122ea612128565b5b60006122f9848285016122c0565b91505092915050565b600073ffffffffffffffffffffffffffffffffffffffff82169050919050565b600061232d82612302565b9050919050565b61233d81612322565b82525050565b60006020820190506123586000830184612334565b92915050565b61236781612322565b811461237257600080fd5b50565b6000813590506123848161235e565b92915050565b600080604083850312156123a1576123a0612128565b5b60006123af85828601612375565b92505060206123c0858286016122c0565b9150509250929050565b6123d38161229f565b82525050565b60006020820190506123ee60008301846123ca565b92915050565b60008060006060848603121561240d5761240c612128565b5b600061241b86828701612375565b935050602061242c86828701612375565b925050604061243d868287016122c0565b9150509250925092565b600080fd5b600080fd5b7f4e487b7100000000000000000000000000000000000000000000000000000000600052604160045260246000fd5b61248982612233565b810181811067ffffffffffffffff821117156124a8576124a7612451565b5b80604052505050565b60006124bb61211e565b90506124c78282612480565b919050565b600067ffffffffffffffff8211156124e7576124e6612451565b5b6124f082612233565b9050602081019050919050565b82818337600083830152505050565b600061251f61251a846124cc565b6124b1565b90508281526020810184848401111561253b5761253a61244c565b5b6125468482856124fd565b509392505050565b600082601f83011261256357612562612447565b5b813561257384826020860161250c565b91505092915050565b60006020828403121561259257612591612128565b5b600082013567ffffffffffffffff8111156125b0576125af61212d565b5b6125bc8482850161254e565b91505092915050565b6000602082840312156125db576125da612128565b5b60006125e984828501612375565b91505092915050565b6125fb816121b7565b811461260657600080fd5b50565b600081359050612618816125f2565b92915050565b6000806040838503121561263557612634612128565b5b600061264385828601612375565b925050602061265485828601612609565b9150509250929050565b600067ffffffffffffffff82111561267957612678612451565b5b61268282612233565b9050602081019050919050565b60006126a261269d8461265e565b6124b1565b9050828152602081018484840111156126be576126bd61244c565b5b6126c98482856124fd565b509392505050565b600082601f8301126126e6576126e5612447565b5b81356126f684826020860161268f565b91505092915050565b6000806000806080858703121561271957612718612128565b5b600061272787828801612375565b945050602061273887828801612375565b9350506040612749878288016122c0565b925050606085013567ffffffffffffffff81111561276a5761276961212d565b5b612776878288016126d1565b91505092959194509250565b6000806040838503121561279957612798612128565b5b60006127a785828601612375565b92505060206127b885828601612375565b9150509250929050565b7f4e487b7100000000000000000000000000000000000000000000000000000000600052602260045260246000fd5b6000600282049050600182168061280957607f821691505b60208210810361281c5761281b6127c2565b5b50919050565b7f4552433732313a20617070726f76616c20746f2063757272656e74206f776e6560008201527f7200000000000000000000000000000000000000000000000000000000000000602082015250565b600061287e6021836121f8565b915061288982612822565b604082019050919050565b600060208201905081810360008301526128ad81612871565b9050919050565b7f4552433732313a20617070726f76652063616c6c6572206973206e6f7420746f60008201527f6b656e206f776e6572206f7220617070726f76656420666f7220616c6c000000602082015250565b6000612910603d836121f8565b915061291b826128b4565b604082019050919050565b6000602082019050818103600083015261293f81612903565b9050919050565b7f4552433732313a2063616c6c6572206973206e6f7420746f6b656e206f776e6560008201527f72206f7220617070726f76656400000000000000000000000000000000000000602082015250565b60006129a2602d836121f8565b91506129ad82612946565b604082019050919050565b600060208201905081810360008301526129d181612995565b9050919050565b7f455243373231456e756d657261626c653a206f776e657220696e646578206f7560008201527f74206f6620626f756e6473000000000000000000000000000000000000000000602082015250565b6000612a34602b836121f8565b9150612a3f826129d8565b604082019050919050565b60006020820190508181036000830152612a6381612a27565b9050919050565b7f455243373231456e756d657261626c653a20676c6f62616c20696e646578206f60008201527f7574206f6620626f756e64730000000000000000000000000000000000000000602082015250565b6000612ac6602c836121f8565b9150612ad182612a6a565b604082019050919050565b60006020820190508181036000830152612af581612ab9565b9050919050565b7f4e487b7100000000000000000000000000000000000000000000000000000000600052603260045260246000fd5b7f4552433732313a20696e76616c696420746f6b656e2049440000000000000000600082015250565b6000612b616018836121f8565b9150612b6c82612b2b565b602082019050919050565b60006020820190508181036000830152612b9081612b54565b9050919050565b7f4552433732313a2061646472657373207a65726f206973206e6f74206120766160008201527f6c6964206f776e65720000000000000000000000000000000000000000000000602082015250565b6000612bf36029836121f8565b9150612bfe82612b97565b604082019050919050565b60006020820190508181036000830152612c2281612be6565b9050919050565b7f4552433732313a207472616e736665722066726f6d20696e636f72726563742060008201527f6f776e6572000000000000000000000000000000000000000000000000000000602082015250565b6000612c856025836121f8565b9150612c9082612c29565b604082019050919050565b60006020820190508181036000830152612cb481612c78565b9050919050565b7f4552433732313a207472616e7366657220746f20746865207a65726f2061646460008201527f7265737300000000000000000000000000000000000000000000000000000000602082015250565b6000612d176024836121f8565b9150612d2282612cbb565b604082019050919050565b60006020820190508181036000830152612d4681612d0a565b9050919050565b7f45524337323155524953746f726167653a2055524920736574206f66206e6f6e60008201527f6578697374656e7420746f6b656e000000000000000000000000000000000000602082015250565b6000612da9602e836121f8565b9150612db482612d4d565b604082019050919050565b60006020820190508181036000830152612dd881612d9c565b9050919050565b60008190508160005260206000209050919050565b60006020601f8301049050919050565b600082821b905092915050565b600060088302612e417fffffffffffffffffffffffffffffffffffffffffffffffffffffffffffffffff82612e04565b612e4b8683612e04565b95508019841693508086168417925050509392505050565b6000819050919050565b6000612e88612e83612e7e8461229f565b612e63565b61229f565b9050919050565b6000819050919050565b612ea283612e6d565b612eb6612eae82612e8f565b848454612e11565b825550505050565b600090565b612ecb612ebe565b612ed6818484612e99565b505050565b5b81811015612efa57612eef600082612ec3565b600181019050612edc565b5050565b601f821115612f3f57612f1081612ddf565b612f1984612df4565b81016020851015612f28578190505b612f3c612f3485612df4565b830182612edb565b50505b505050565b600082821c905092915050565b6000612f6260001984600802612f44565b1980831691505092915050565b6000612f7b8383612f51565b9150826002028217905092915050565b612f94826121ed565b67ffffffffffffffff811115612fad57612fac612451565b5b612fb782546127f1565b612fc2828285612efe565b600060209050601f831160018114612ff55760008415612fe3578287015190505b612fed8582612f6f565b865550613055565b601f19841661300386612ddf565b60005b8281101561302b57848901518255600182019150602085019450602081019050613006565b868310156130485784890151613044601f891682612f51565b8355505b6001600288020188555050505b505050505050565b7f4552433732313a20617070726f766520746f2063616c6c657200000000000000600082015250565b60006130936019836121f8565b915061309e8261305d565b602082019050919050565b600060208201905081810360008301526130c281613086565b9050919050565b7f4552433732313a207472616e7366657220746f206e6f6e20455243373231526560008201527f63656976657220696d706c656d656e7465720000000000000000000000000000602082015250565b60006131256032836121f8565b9150613130826130c9565b604082019050919050565b6000602082019050818103600083015261315481613118565b9050919050565b600081905092915050565b6000613171826121ed565b61317b818561315b565b935061318b818560208601612209565b80840191505092915050565b60006131a38285613166565b91506131af8284613166565b91508190509392505050565b600081519050919050565b600082825260208201905092915050565b60006131e2826131bb565b6131ec81856131c6565b93506131fc818560208601612209565b61320581612233565b840191505092915050565b60006080820190506132256000830187612334565b6132326020830186612334565b61323f60408301856123ca565b818103606083015261325181846131d7565b905095945050505050565b60008151905061326b8161215e565b92915050565b60006020828403121561328757613286612128565b5b60006132958482850161325c565b91505092915050565b7f455243373231456e756d657261626c653a20636f6e736563757469766520747260008201527f616e7366657273206e6f7420737570706f727465640000000000000000000000602082015250565b60006132fa6035836121f8565b91506133058261329e565b604082019050919050565b60006020820190508181036000830152613329816132ed565b9050919050565b7f4552433732313a206d696e7420746f20746865207a65726f2061646472657373600082015250565b60006133666020836121f8565b915061337182613330565b602082019050919050565b6000602082019050818103600083015261339581613359565b9050919050565b7f4552433732313a20746f6b656e20616c7265616479206d696e74656400000000600082015250565b60006133d2601c836121f8565b91506133dd8261339c565b602082019050919050565b60006020820190508181036000830152613401816133c5565b9050919050565b7f4e487b7100000000000000000000000000000000000000000000000000000000600052601260045260246000fd5b7f4e487b7100000000000000000000000000000000000000000000000000000000600052601160045260246000fd5b60006134718261229f565b915061347c8361229f565b925082820390508181111561349457613493613437565b5b92915050565b60006134a58261229f565b91506134b08361229f565b92508282019050808211156134c8576134c7613437565b5b92915050565b7f4e487b7100000000000000000000000000000000000000000000000000000000600052603160045260246000fdfea26469706673582212209c955002aec57cb04c9f0794ad975599de294b3402c04ff81037549628a3962d64736f6c63430008110033",
  "linkReferences": {},
  "deployedLinkReferences": {}
}